{
  "transactions": [
    {
      "hash": "0x3ae0d80e534f1759d9205bd505c7fec001fe25cc5eaf476f1af4e95016453067",
      "transactionType": "CREATE",
      "contractName": "ZuzCoin",
      "contractAddress": "0x0902d7d6ccf82b4900161c046ea0f059806e05f1",
      "function": null,
      "arguments": null,
      "transaction": {
        "from": "0xe4c1f059ca50a7e28aa2f418972932ecc1aea700",
        "gas": "0xf2940",
        "value": "0x0",
        "input": "0x608060405234801561000f575f80fd5b5033604051806040016040528060088152602001672d3abd1021b7b4b760c11b815250604051806040016040528060038152602001622d2aad60e91b815250816003908161005d919061033c565b50600461006a828261033c565b5050506001600160a01b03811661009b57604051631e4fbdf760e01b81525f60048201526024015b60405180910390fd5b6100a4816100f5565b5069152d02c7e14af68000006100ba3382610146565b60405181815233907f3f2c9d57c068687834f0de942a9babb9e5acab57d516d3480a3c16ee165a42739060200160405180910390a25061041b565b600580546001600160a01b038381166001600160a01b0319831681179093556040519116919082907f8be0079c531659141344cd1fd0a4f28419497f9722a3daafe3b4186f6b6457e0905f90a35050565b6001600160a01b03821661016f5760405163ec442f0560e01b81525f6004820152602401610092565b61017a5f838361017e565b5050565b6001600160a01b0383166101a8578060025f82825461019d91906103f6565b909155506102189050565b6001600160a01b0383165f90815260208190526040902054818110156101fa5760405163391434e360e21b81526001600160a01b03851660048201526024810182905260448101839052606401610092565b6001600160a01b0384165f9081526020819052604090209082900390555b6001600160a01b03821661023457600280548290039055610252565b6001600160a01b0382165f9081526020819052604090208054820190555b816001600160a01b0316836001600160a01b03167fddf252ad1be2c89b69c2b068fc378daa952ba7f163c4a11628f55a4df523b3ef8360405161029791815260200190565b60405180910390a3505050565b634e487b7160e01b5f52604160045260245ffd5b600181811c908216806102cc57607f821691505b6020821081036102ea57634e487b7160e01b5f52602260045260245ffd5b50919050565b601f82111561033757805f5260205f20601f840160051c810160208510156103155750805b601f840160051c820191505b81811015610334575f8155600101610321565b50505b505050565b81516001600160401b03811115610355576103556102a4565b6103698161036384546102b8565b846102f0565b6020601f82116001811461039b575f83156103845750848201515b5f19600385901b1c1916600184901b178455610334565b5f84815260208120601f198516915b828110156103ca57878501518255602094850194600190920191016103aa565b50848210156103e757868401515f19600387901b60f8161c191681555b50505050600190811b01905550565b8082018082111561041557634e487b7160e01b5f52601160045260245ffd5b92915050565b610a70806104285f395ff3fe608060405234801561000f575f80fd5b50600436106100fb575f3560e01c806370a0823111610093578063a9059cbb11610063578063a9059cbb14610200578063da0239a614610213578063dd62ed3e1461021b578063f2fde38b14610253575f80fd5b806370a08231146101ad578063715018a6146101d55780638da5cb5b146101dd57806395d89b41146101f8575f80fd5b8063313ce567116100ce578063313ce5671461016557806332cb6b0c1461017457806340c10f191461018557806342966c681461019a575f80fd5b806306fdde03146100ff578063095ea7b31461011d57806318160ddd1461014057806323b872dd14610152575b5f80fd5b610107610266565b60405161011491906108ae565b60405180910390f35b61013061012b3660046108fe565b6102f6565b6040519015158152602001610114565b6002545b604051908152602001610114565b610130610160366004610926565b61030f565b60405160128152602001610114565b61014469d3c21bcecceda100000081565b6101986101933660046108fe565b610332565b005b6101986101a8366004610960565b610448565b6101446101bb366004610977565b6001600160a01b03165f9081526020819052604090205490565b610198610455565b6005546040516001600160a01b039091168152602001610114565b610107610468565b61013061020e3660046108fe565b610477565b610144610484565b610144610229366004610997565b6001600160a01b039182165f90815260016020908152604080832093909416825291909152205490565b610198610261366004610977565b6104a7565b606060038054610275906109c8565b80601f01602080910402602001604051908101604052809291908181526020018280546102a1906109c8565b80156102ec5780601f106102c3576101008083540402835291602001916102ec565b820191905f5260205f20905b8154815290600101906020018083116102cf57829003601f168201915b5050505050905090565b5f336103038185856104e1565b60019150505b92915050565b5f3361031c8582856104f3565b61032785858561056f565b506001949350505050565b61033a6105cc565b6001600160a01b0382166103955760405162461bcd60e51b815260206004820152601b60248201527f43616e6e6f74206d696e7420746f207a65726f2061646472657373000000000060448201526064015b60405180910390fd5b69d3c21bcecceda1000000816103aa60025490565b6103b49190610a14565b11156103f75760405162461bcd60e51b815260206004820152601260248201527145786365656473206d617820737570706c7960701b604482015260640161038c565b61040182826105f9565b816001600160a01b03167f3f2c9d57c068687834f0de942a9babb9e5acab57d516d3480a3c16ee165a42738260405161043c91815260200190565b60405180910390a25050565b6104523382610631565b50565b61045d6105cc565b6104665f610665565b565b606060048054610275906109c8565b5f3361030381858561056f565b5f61048e60025490565b6104a29069d3c21bcecceda1000000610a27565b905090565b6104af6105cc565b6001600160a01b0381166104d857604051631e4fbdf760e01b81525f600482015260240161038c565b61045281610665565b6104ee83838360016106b6565b505050565b6001600160a01b038381165f908152600160209081526040808320938616835292905220545f19811015610569578181101561055b57604051637dc7a0d960e11b81526001600160a01b0384166004820152602481018290526044810183905260640161038c565b61056984848484035f6106b6565b50505050565b6001600160a01b03831661059857604051634b637e8f60e11b81525f600482015260240161038c565b6001600160a01b0382166105c15760405163ec442f0560e01b81525f600482015260240161038c565b6104ee838383610788565b6005546001600160a01b031633146104665760405163118cdaa760e01b815233600482015260240161038c565b6001600160a01b0382166106225760405163ec442f0560e01b81525f600482015260240161038c565b61062d5f8383610788565b5050565b6001600160a01b03821661065a57604051634b637e8f60e11b81525f600482015260240161038c565b61062d825f83610788565b600580546001600160a01b038381166001600160a01b0319831681179093556040519116919082907f8be0079c531659141344cd1fd0a4f28419497f9722a3daafe3b4186f6b6457e0905f90a35050565b6001600160a01b0384166106df5760405163e602df0560e01b81525f600482015260240161038c565b6001600160a01b03831661070857604051634a1406b160e11b81525f600482015260240161038c565b6001600160a01b038085165f908152600160209081526040808320938716835292905220829055801561056957826001600160a01b0316846001600160a01b03167f8c5be1e5ebec7d5bd14f71427d1e84f3dd0314c0f7b2291e5b200ac8c7c3b9258460405161077a91815260200190565b60405180910390a350505050565b6001600160a01b0383166107b2578060025f8282546107a79190610a14565b909155506108229050565b6001600160a01b0383165f90815260208190526040902054818110156108045760405163391434e360e21b81526001600160a01b0385166004820152602481018290526044810183905260640161038c565b6001600160a01b0384165f9081526020819052604090209082900390555b6001600160a01b03821661083e5760028054829003905561085c565b6001600160a01b0382165f9081526020819052604090208054820190555b816001600160a01b0316836001600160a01b03167fddf252ad1be2c89b69c2b068fc378daa952ba7f163c4a11628f55a4df523b3ef836040516108a191815260200190565b60405180910390a3505050565b602081525f82518060208401528060208501604085015e5f604082850101526040601f19601f83011684010191505092915050565b80356001600160a01b03811681146108f9575f80fd5b919050565b5f806040838503121561090f575f80fd5b610918836108e3565b946020939093013593505050565b5f805f60608486031215610938575f80fd5b610941846108e3565b925061094f602085016108e3565b929592945050506040919091013590565b5f60208284031215610970575f80fd5b5035919050565b5f60208284031215610987575f80fd5b610990826108e3565b9392505050565b5f80604083850312156109a8575f80fd5b6109b1836108e3565b91506109bf602084016108e3565b90509250929050565b600181811c908216806109dc57607f821691505b6020821081036109fa57634e487b7160e01b5f52602260045260245ffd5b50919050565b634e487b7160e01b5f52601160045260245ffd5b8082018082111561030957610309610a00565b8181038181111561030957610309610a0056fea2646970667358221220e3e985b4f2c29605cb0511081cda9073c77d15eea3d50bc1867d4f2df38d4d2c64736f6c634300081a0033",
        "nonce": "0x10",
        "chainId": "0x279f"
      },
      "additionalContracts": [],
      "isFixedGasLimit": false
    },
    {
      "hash": "0x962d483dd3905a38666ab5802aba6def5a1884c51ae11b7439cd07fcb9d8094b",
      "transactionType": "CREATE",
      "contractName": "MockUSDC",
      "contractAddress": "0x4c23adba6db5d67fece4b70c043fda0f07187f59",
      "function": null,
      "arguments": null,
      "transaction": {
        "from": "0xe4c1f059ca50a7e28aa2f418972932ecc1aea700",
        "gas": "0xd8e2c",
        "value": "0x0",
        "input": "0x608060405234801561000f575f80fd5b5033604051806040016040528060098152602001684d6f636b205553444360b81b815250604051806040016040528060048152602001635553444360e01b815250816003908161005f9190610302565b50600461006c8282610302565b5050506001600160a01b03811661009d57604051631e4fbdf760e01b81525f60048201526024015b60405180910390fd5b6100a6816100bb565b506100b63364e8d4a5100061010c565b6103e1565b600580546001600160a01b038381166001600160a01b0319831681179093556040519116919082907f8be0079c531659141344cd1fd0a4f28419497f9722a3daafe3b4186f6b6457e0905f90a35050565b6001600160a01b0382166101355760405163ec442f0560e01b81525f6004820152602401610094565b6101405f8383610144565b5050565b6001600160a01b03831661016e578060025f82825461016391906103bc565b909155506101de9050565b6001600160a01b0383165f90815260208190526040902054818110156101c05760405163391434e360e21b81526001600160a01b03851660048201526024810182905260448101839052606401610094565b6001600160a01b0384165f9081526020819052604090209082900390555b6001600160a01b0382166101fa57600280548290039055610218565b6001600160a01b0382165f9081526020819052604090208054820190555b816001600160a01b0316836001600160a01b03167fddf252ad1be2c89b69c2b068fc378daa952ba7f163c4a11628f55a4df523b3ef8360405161025d91815260200190565b60405180910390a3505050565b634e487b7160e01b5f52604160045260245ffd5b600181811c9082168061029257607f821691505b6020821081036102b057634e487b7160e01b5f52602260045260245ffd5b50919050565b601f8211156102fd57805f5260205f20601f840160051c810160208510156102db5750805b601f840160051c820191505b818110156102fa575f81556001016102e7565b50505b505050565b81516001600160401b0381111561031b5761031b61026a565b61032f81610329845461027e565b846102b6565b6020601f821160018114610361575f831561034a5750848201515b5f19600385901b1c1916600184901b1784556102fa565b5f84815260208120601f198516915b828110156103905787850151825560209485019460019092019101610370565b50848210156103ad57868401515f19600387901b60f8161c191681555b50505050600190811b01905550565b808201808211156103db57634e487b7160e01b5f52601160045260245ffd5b92915050565b610904806103ee5f395ff3fe608060405234801561000f575f80fd5b50600436106100e5575f3560e01c806370a082311161008857806395d89b411161006357806395d89b41146101d1578063a9059cbb146101d9578063dd62ed3e146101ec578063f2fde38b14610224575f80fd5b806370a0823114610186578063715018a6146101ae5780638da5cb5b146101b6575f80fd5b806323b872dd116100c357806323b872dd1461013c578063313ce5671461014f57806340c10f191461015e57806342966c6814610173575f80fd5b806306fdde03146100e9578063095ea7b31461010757806318160ddd1461012a575b5f80fd5b6100f1610237565b6040516100fe919061075d565b60405180910390f35b61011a6101153660046107ad565b6102c7565b60405190151581526020016100fe565b6002545b6040519081526020016100fe565b61011a61014a3660046107d5565b6102e0565b604051600681526020016100fe565b61017161016c3660046107ad565b610303565b005b61017161018136600461080f565b610319565b61012e610194366004610826565b6001600160a01b03165f9081526020819052604090205490565b610171610326565b6005546040516001600160a01b0390911681526020016100fe565b6100f1610339565b61011a6101e73660046107ad565b610348565b61012e6101fa366004610846565b6001600160a01b039182165f90815260016020908152604080832093909416825291909152205490565b610171610232366004610826565b610355565b60606003805461024690610877565b80601f016020809104026020016040519081016040528092919081815260200182805461027290610877565b80156102bd5780601f10610294576101008083540402835291602001916102bd565b820191905f5260205f20905b8154815290600101906020018083116102a057829003601f168201915b5050505050905090565b5f336102d4818585610394565b60019150505b92915050565b5f336102ed8582856103a6565b6102f8858585610422565b506001949350505050565b61030b61047f565b61031582826104ac565b5050565b61032333826104e0565b50565b61032e61047f565b6103375f610514565b565b60606004805461024690610877565b5f336102d4818585610422565b61035d61047f565b6001600160a01b03811661038b57604051631e4fbdf760e01b81525f60048201526024015b60405180910390fd5b61032381610514565b6103a18383836001610565565b505050565b6001600160a01b038381165f908152600160209081526040808320938616835292905220545f1981101561041c578181101561040e57604051637dc7a0d960e11b81526001600160a01b03841660048201526024810182905260448101839052606401610382565b61041c84848484035f610565565b50505050565b6001600160a01b03831661044b57604051634b637e8f60e11b81525f6004820152602401610382565b6001600160a01b0382166104745760405163ec442f0560e01b81525f6004820152602401610382565b6103a1838383610637565b6005546001600160a01b031633146103375760405163118cdaa760e01b8152336004820152602401610382565b6001600160a01b0382166104d55760405163ec442f0560e01b81525f6004820152602401610382565b6103155f8383610637565b6001600160a01b03821661050957604051634b637e8f60e11b81525f6004820152602401610382565b610315825f83610637565b600580546001600160a01b038381166001600160a01b0319831681179093556040519116919082907f8be0079c531659141344cd1fd0a4f28419497f9722a3daafe3b4186f6b6457e0905f90a35050565b6001600160a01b03841661058e5760405163e602df0560e01b81525f6004820152602401610382565b6001600160a01b0383166105b757604051634a1406b160e11b81525f6004820152602401610382565b6001600160a01b038085165f908152600160209081526040808320938716835292905220829055801561041c57826001600160a01b0316846001600160a01b03167f8c5be1e5ebec7d5bd14f71427d1e84f3dd0314c0f7b2291e5b200ac8c7c3b9258460405161062991815260200190565b60405180910390a350505050565b6001600160a01b038316610661578060025f82825461065691906108af565b909155506106d19050565b6001600160a01b0383165f90815260208190526040902054818110156106b35760405163391434e360e21b81526001600160a01b03851660048201526024810182905260448101839052606401610382565b6001600160a01b0384165f9081526020819052604090209082900390555b6001600160a01b0382166106ed5760028054829003905561070b565b6001600160a01b0382165f9081526020819052604090208054820190555b816001600160a01b0316836001600160a01b03167fddf252ad1be2c89b69c2b068fc378daa952ba7f163c4a11628f55a4df523b3ef8360405161075091815260200190565b60405180910390a3505050565b602081525f82518060208401528060208501604085015e5f604082850101526040601f19601f83011684010191505092915050565b80356001600160a01b03811681146107a8575f80fd5b919050565b5f80604083850312156107be575f80fd5b6107c783610792565b946020939093013593505050565b5f805f606084860312156107e7575f80fd5b6107f084610792565b92506107fe60208501610792565b929592945050506040919091013590565b5f6020828403121561081f575f80fd5b5035919050565b5f60208284031215610836575f80fd5b61083f82610792565b9392505050565b5f8060408385031215610857575f80fd5b61086083610792565b915061086e60208401610792565b90509250929050565b600181811c9082168061088b57607f821691505b6020821081036108a957634e487b7160e01b5f52602260045260245ffd5b50919050565b808201808211156102da57634e487b7160e01b5f52601160045260245ffdfea26469706673582212203e534099f18b7148cf9ae1214034d034c536c2826be0467f0938c72dfd9f216b64736f6c634300081a0033",
        "nonce": "0x11",
        "chainId": "0x279f"
      },
      "additionalContracts": [],
      "isFixedGasLimit": false
    },
    {
      "hash": "0x0dda6e960517b1120076355b3c193b1e48674141cdefc4a6c6b6bc008234afd2",
      "transactionType": "CREATE",
      "contractName": "SimpleDEX",
      "contractAddress": "0xe26a2b8614cfab4d4e5ed3f2f8ca56c1d896a3fd",
      "function": null,
      "arguments": [
        "0x0902d7D6CcF82b4900161C046Ea0f059806E05F1",
        "0x4c23aDbA6Db5d67FECe4B70C043FDA0f07187F59"
      ],
      "transaction": {
        "from": "0xe4c1f059ca50a7e28aa2f418972932ecc1aea700",
        "gas": "0x1d9e60",
        "value": "0x0",
        "input": "0x60c060405234801561000f575f80fd5b50604051611c00380380611c0083398101604081905261002e91610202565b336040518060400160405280600c81526020016b053696d706c65444558204c560a41b815250604051806040016040528060078152602001660534445582d4c560cc1b815250816003908161008391906102cb565b50600461009082826102cb565b50506001600555506001600160a01b0381166100c657604051631e4fbdf760e01b81525f60048201526024015b60405180910390fd5b6100cf81610196565b50806001600160a01b0316826001600160a01b0316036101245760405162461bcd60e51b815260206004820152601060248201526f4964656e746963616c20746f6b656e7360801b60448201526064016100bd565b6001600160a01b0382161580159061014457506001600160a01b03811615155b61017f5760405162461bcd60e51b815260206004820152600c60248201526b5a65726f206164647265737360a01b60448201526064016100bd565b6001600160a01b039182166080521660a052610385565b600680546001600160a01b038381166001600160a01b0319831681179093556040519116919082907f8be0079c531659141344cd1fd0a4f28419497f9722a3daafe3b4186f6b6457e0905f90a35050565b80516001600160a01b03811681146101fd575f80fd5b919050565b5f8060408385031215610213575f80fd5b61021c836101e7565b915061022a602084016101e7565b90509250929050565b634e487b7160e01b5f52604160045260245ffd5b600181811c9082168061025b57607f821691505b60208210810361027957634e487b7160e01b5f52602260045260245ffd5b50919050565b601f8211156102c657805f5260205f20601f840160051c810160208510156102a45750805b601f840160051c820191505b818110156102c3575f81556001016102b0565b50505b505050565b81516001600160401b038111156102e4576102e4610233565b6102f8816102f28454610247565b8461027f565b6020601f82116001811461032a575f83156103135750848201515b5f19600385901b1c1916600184901b1784556102c3565b5f84815260208120601f198516915b828110156103595787850151825560209485019460019092019101610339565b508482101561037657868401515f19600387901b60f8161c191681555b50505050600190811b01905550565b60805160a0516118226103de5f395f81816102750152818161068001528181610a7701528181610c760152610f1501525f81816101ee015281816105ea015281816109e801528181610be50152610fab01526118225ff3fe608060405234801561000f575f80fd5b5060043610610187575f3560e01c80638da5cb5b116100d9578063ba9a7a5611610093578063dc5fa6c51161006e578063dc5fa6c51461037a578063dd62ed3e14610383578063eaf98d23146103bb578063f2fde38b146103c3575f80fd5b8063ba9a7a561461035e578063c915cc2414610367578063d73792a91461035e575f80fd5b80638da5cb5b146102ef57806395d89b411461030057806398d5fdca146103085780639c8f9f23146103105780639cd441da14610338578063a9059cbb1461034b575f80fd5b806319e36f3b116101445780635f64b55b1161011f5780635f64b55b1461027057806360246c881461029757806370a08231146102bf578063715018a6146102e7575f80fd5b806319e36f3b1461024557806323b872dd1461024e578063313ce56714610261575f80fd5b8063054d50d41461018b57806306fdde03146101b1578063095ea7b3146101c65780630fc63d10146101e9578063140e62471461022857806318160ddd1461023d575b5f80fd5b61019e61019936600461153e565b6103d6565b6040519081526020015b60405180910390f35b6101b961047f565b6040516101a89190611567565b6101d96101d43660046115b7565b61050f565b60405190151581526020016101a8565b6102107f000000000000000000000000000000000000000000000000000000000000000081565b6040516001600160a01b0390911681526020016101a8565b61023b6102363660046115df565b610528565b005b60025461019e565b61019e60085481565b6101d961025c3660046115ff565b61077d565b604051601281526020016101a8565b6102107f000000000000000000000000000000000000000000000000000000000000000081565b61029f6107a0565b6040805194855260208501939093529183015260608201526080016101a8565b61019e6102cd366004611639565b6001600160a01b03165f9081526020819052604090205490565b61023b6107ec565b6006546001600160a01b0316610210565b6101b96107ff565b61019e61080e565b61032361031e366004611652565b610876565b604080519283526020830191909152016101a8565b61019e6103463660046115df565b610b6b565b6101d96103593660046115b7565b610e46565b61019e6103e881565b61023b6103753660046115df565b610e53565b61019e60075481565b61019e610391366004611669565b6001600160a01b039182165f90815260016020908152604080832093909416825291909152205490565b61019e600381565b61023b6103d1366004611639565b611095565b5f8084116103ff5760405162461bcd60e51b81526004016103f69061169a565b60405180910390fd5b5f8311801561040d57505f82115b6104295760405162461bcd60e51b81526004016103f6906116d1565b5f61043760036103e8611715565b6104419086611728565b90505f61044e8483611728565b90505f8261045e6103e888611728565b610468919061173f565b90506104748183611752565b979650505050505050565b60606003805461048e90611771565b80601f01602080910402602001604051908101604052809291908181526020018280546104ba90611771565b80156105055780601f106104dc57610100808354040283529160200191610505565b820191905f5260205f20905b8154815290600101906020018083116104e857829003601f168201915b5050505050905090565b5f3361051c8185856110d2565b60019150505b92915050565b6105306110e4565b5f821161054f5760405162461bcd60e51b81526004016103f69061169a565b5f60075411801561056157505f600854115b61057d5760405162461bcd60e51b81526004016103f6906116d1565b5f61058d836007546008546103d6565b9050818110156105d35760405162461bcd60e51b81526020600482015260116024820152700a6d8d2e0e0c2ceca40e8dede40d0d2ced607b1b60448201526064016103f6565b6040516323b872dd60e01b81526001600160a01b037f000000000000000000000000000000000000000000000000000000000000000016906323b872dd90610623903390309088906004016117a9565b6020604051808303815f875af115801561063f573d5f803e3d5ffd5b505050506040513d601f19601f8201168201806040525081019061066391906117cd565b5060405163a9059cbb60e01b8152336004820152602481018290527f00000000000000000000000000000000000000000000000000000000000000006001600160a01b03169063a9059cbb906044016020604051808303815f875af11580156106ce573d5f803e3d5ffd5b505050506040513d601f19601f820116820180604052508101906106f291906117cd565b508260075f828254610704919061173f565b925050819055508060085f82825461071c9190611715565b9091555050604080518481525f60208201819052918101919091526060810182905233907f49926bbebe8474393f434dfa4f78694c0923efa07d19f2284518bfabd06eb737906080015b60405180910390a2506107796001600555565b5050565b5f3361078a85828561110e565b61079585858561118a565b506001949350505050565b6007546008545f806107b160025490565b91505f600754116107c2575f6107e4565b6007546008546107da90670de0b6b3a7640000611728565b6107e49190611752565b905090919293565b6107f46111e7565b6107fd5f611214565b565b60606004805461048e90611771565b5f806007541161084f5760405162461bcd60e51b815260206004820152600c60248201526b4e6f206c697175696469747960a01b60448201526064016103f6565b60075460085461086790670de0b6b3a7640000611728565b6108719190611752565b905090565b5f806108806110e4565b5f83116108cf5760405162461bcd60e51b815260206004820181905260248201527f4c6971756964697479206d7573742062652067726561746572207468616e203060448201526064016103f6565b335f908152602081905260409020548311156109265760405162461bcd60e51b8152602060048201526016602482015275496e73756666696369656e74204c5020746f6b656e7360501b60448201526064016103f6565b5f61093060025490565b905080600754856109419190611728565b61094b9190611752565b9250806008548561095c9190611728565b6109669190611752565b91505f8311801561097657505f82115b6109c25760405162461bcd60e51b815260206004820152601d60248201527f496e73756666696369656e74206c6971756964697479206275726e656400000060448201526064016103f6565b6109cc3385611265565b60405163a9059cbb60e01b8152336004820152602481018490527f00000000000000000000000000000000000000000000000000000000000000006001600160a01b03169063a9059cbb906044016020604051808303815f875af1158015610a36573d5f803e3d5ffd5b505050506040513d601f19601f82011682018060405250810190610a5a91906117cd565b5060405163a9059cbb60e01b8152336004820152602481018390527f00000000000000000000000000000000000000000000000000000000000000006001600160a01b03169063a9059cbb906044016020604051808303815f875af1158015610ac5573d5f803e3d5ffd5b505050506040513d601f19601f82011682018060405250810190610ae991906117cd565b508260075f828254610afb9190611715565b925050819055508160085f828254610b139190611715565b9091555050604080518481526020810184905290810185905233907f1dc8bb69df2b8e91fbdcbfcf93d951b3f0000f085a95fe3f7946d6161439245d9060600160405180910390a250610b666001600555565b915091565b5f610b746110e4565b5f83118015610b8257505f82115b610bce5760405162461bcd60e51b815260206004820152601e60248201527f416d6f756e7473206d7573742062652067726561746572207468616e2030000060448201526064016103f6565b6040516323b872dd60e01b81526001600160a01b037f000000000000000000000000000000000000000000000000000000000000000016906323b872dd90610c1e903390309088906004016117a9565b6020604051808303815f875af1158015610c3a573d5f803e3d5ffd5b505050506040513d601f19601f82011682018060405250810190610c5e91906117cd565b506040516323b872dd60e01b81526001600160a01b037f000000000000000000000000000000000000000000000000000000000000000016906323b872dd90610caf903390309087906004016117a9565b6020604051808303815f875af1158015610ccb573d5f803e3d5ffd5b505050506040513d601f19601f82011682018060405250810190610cef91906117cd565b505f610cfa60025490565b9050805f03610d37576103e8610d18610d138587611728565b611299565b610d229190611715565b9150610d3261dead6103e86112fd565b610d71565b600754610d6e90610d488387611728565b610d529190611752565b600854610d5f8487611728565b610d699190611752565b611331565b91505b5f8211610dc05760405162461bcd60e51b815260206004820152601d60248201527f496e73756666696369656e74206c6971756964697479206d696e74656400000060448201526064016103f6565b610dca33836112fd565b8360075f828254610ddb919061173f565b925050819055508260085f828254610df3919061173f565b9091555050604080518581526020810185905290810183905233907f64b83944e79c3ce8d4c297411de637c3e102d064677aac0c163976ebdcd6f50e9060600160405180910390a2506105226001600555565b5f3361051c81858561118a565b610e5b6110e4565b5f8211610e7a5760405162461bcd60e51b81526004016103f69061169a565b5f600754118015610e8c57505f600854115b610ea85760405162461bcd60e51b81526004016103f6906116d1565b5f610eb8836008546007546103d6565b905081811015610efe5760405162461bcd60e51b81526020600482015260116024820152700a6d8d2e0e0c2ceca40e8dede40d0d2ced607b1b60448201526064016103f6565b6040516323b872dd60e01b81526001600160a01b037f000000000000000000000000000000000000000000000000000000000000000016906323b872dd90610f4e903390309088906004016117a9565b6020604051808303815f875af1158015610f6a573d5f803e3d5ffd5b505050506040513d601f19601f82011682018060405250810190610f8e91906117cd565b5060405163a9059cbb60e01b8152336004820152602481018290527f00000000000000000000000000000000000000000000000000000000000000006001600160a01b03169063a9059cbb906044016020604051808303815f875af1158015610ff9573d5f803e3d5ffd5b505050506040513d601f19601f8201168201806040525081019061101d91906117cd565b508260085f82825461102f919061173f565b925050819055508060075f8282546110479190611715565b9091555050604080515f80825260208201869052918101839052606081019190915233907f49926bbebe8474393f434dfa4f78694c0923efa07d19f2284518bfabd06eb73790608001610766565b61109d6111e7565b6001600160a01b0381166110c657604051631e4fbdf760e01b81525f60048201526024016103f6565b6110cf81611214565b50565b6110df8383836001611346565b505050565b60026005540361110757604051633ee5aeb560e01b815260040160405180910390fd5b6002600555565b6001600160a01b038381165f908152600160209081526040808320938616835292905220545f19811015611184578181101561117657604051637dc7a0d960e11b81526001600160a01b038416600482015260248101829052604481018390526064016103f6565b61118484848484035f611346565b50505050565b6001600160a01b0383166111b357604051634b637e8f60e11b81525f60048201526024016103f6565b6001600160a01b0382166111dc5760405163ec442f0560e01b81525f60048201526024016103f6565b6110df838383611418565b6006546001600160a01b031633146107fd5760405163118cdaa760e01b81523360048201526024016103f6565b600680546001600160a01b038381166001600160a01b0319831681179093556040519116919082907f8be0079c531659141344cd1fd0a4f28419497f9722a3daafe3b4186f6b6457e0905f90a35050565b6001600160a01b03821661128e57604051634b637e8f60e11b81525f60048201526024016103f6565b610779825f83611418565b5f815f036112a857505f919050565b5f60026112b684600161173f565b6112c09190611752565b9050825b808210156112f65750806002816112db8187611752565b6112e5919061173f565b6112ef9190611752565b91506112c4565b9392505050565b6001600160a01b0382166113265760405163ec442f0560e01b81525f60048201526024016103f6565b6107795f8383611418565b5f81831061133f57816112f6565b5090919050565b6001600160a01b03841661136f5760405163e602df0560e01b81525f60048201526024016103f6565b6001600160a01b03831661139857604051634a1406b160e11b81525f60048201526024016103f6565b6001600160a01b038085165f908152600160209081526040808320938716835292905220829055801561118457826001600160a01b0316846001600160a01b03167f8c5be1e5ebec7d5bd14f71427d1e84f3dd0314c0f7b2291e5b200ac8c7c3b9258460405161140a91815260200190565b60405180910390a350505050565b6001600160a01b038316611442578060025f828254611437919061173f565b909155506114b29050565b6001600160a01b0383165f90815260208190526040902054818110156114945760405163391434e360e21b81526001600160a01b038516600482015260248101829052604481018390526064016103f6565b6001600160a01b0384165f9081526020819052604090209082900390555b6001600160a01b0382166114ce576002805482900390556114ec565b6001600160a01b0382165f9081526020819052604090208054820190555b816001600160a01b0316836001600160a01b03167fddf252ad1be2c89b69c2b068fc378daa952ba7f163c4a11628f55a4df523b3ef8360405161153191815260200190565b60405180910390a3505050565b5f805f60608486031215611550575f80fd5b505081359360208301359350604090920135919050565b602081525f82518060208401528060208501604085015e5f604082850101526040601f19601f83011684010191505092915050565b80356001600160a01b03811681146115b2575f80fd5b919050565b5f80604083850312156115c8575f80fd5b6115d18361159c565b946020939093013593505050565b5f80604083850312156115f0575f80fd5b50508035926020909101359150565b5f805f60608486031215611611575f80fd5b61161a8461159c565b92506116286020850161159c565b929592945050506040919091013590565b5f60208284031215611649575f80fd5b6112f68261159c565b5f60208284031215611662575f80fd5b5035919050565b5f806040838503121561167a575f80fd5b6116838361159c565b91506116916020840161159c565b90509250929050565b6020808252601d908201527f416d6f756e74206d7573742062652067726561746572207468616e2030000000604082015260600190565b602080825260169082015275496e73756666696369656e74206c697175696469747960501b604082015260600190565b634e487b7160e01b5f52601160045260245ffd5b8181038181111561052257610522611701565b808202811582820484141761052257610522611701565b8082018082111561052257610522611701565b5f8261176c57634e487b7160e01b5f52601260045260245ffd5b500490565b600181811c9082168061178557607f821691505b6020821081036117a357634e487b7160e01b5f52602260045260245ffd5b50919050565b6001600160a01b039384168152919092166020820152604081019190915260600190565b5f602082840312156117dd575f80fd5b815180151581146112f6575f80fdfea26469706673582212209a02ea19d4e9c0fc4c6f4bd4cdfb28ad535a6b743d3e7a728091bdee16c273d164736f6c634300081a00330000000000000000000000000902d7d6ccf82b4900161c046ea0f059806e05f10000000000000000000000004c23adba6db5d67fece4b70c043fda0f07187f59",
        "nonce": "0x12",
        "chainId": "0x279f"
      },
      "additionalContracts": [],
      "isFixedGasLimit": false
    },
    {
      "hash": "0xd9b481526da5e6b9fd54d60cccc2bdb896ef40a70a59d5a089432920ef8ded9a",
      "transactionType": "CALL",
      "contractName": "ZuzCoin",
      "contractAddress": "0x0902d7d6ccf82b4900161c046ea0f059806e05f1",
      "function": "mint(address,uint256)",
      "arguments": [
        "0xe4C1F059Ca50A7E28Aa2f418972932ecc1aEa700",
        "6000000000000000000000"
      ],
      "transaction": {
        "from": "0xe4c1f059ca50a7e28aa2f418972932ecc1aea700",
        "to": "0x0902d7d6ccf82b4900161c046ea0f059806e05f1",
        "gas": "0xcdf8",
        "value": "0x0",
        "input": "0x40c10f19000000000000000000000000e4c1f059ca50a7e28aa2f418972932ecc1aea70000000000000000000000000000000000000000000000014542ba12a337c00000",
        "nonce": "0x13",
        "chainId": "0x279f"
      },
      "additionalContracts": [],
      "isFixedGasLimit": false
    },
    {
      "hash": "0x938d30c464bfddc75936a9b121247f5edfb4db30d05c1b534ecbbf4f924b37dd",
      "transactionType": "CALL",
      "contractName": "MockUSDC",
      "contractAddress": "0x4c23adba6db5d67fece4b70c043fda0f07187f59",
      "function": "mint(address,uint256)",
      "arguments": [
        "0xe4C1F059Ca50A7E28Aa2f418972932ecc1aEa700",
        "12000000000"
      ],
      "transaction": {
        "from": "0xe4c1f059ca50a7e28aa2f418972932ecc1aea700",
        "to": "0x4c23adba6db5d67fece4b70c043fda0f07187f59",
        "gas": "0xd002",
        "value": "0x0",
        "input": "0x40c10f19000000000000000000000000e4c1f059ca50a7e28aa2f418972932ecc1aea70000000000000000000000000000000000000000000000000000000002cb417800",
        "nonce": "0x14",
        "chainId": "0x279f"
      },
      "additionalContracts": [],
      "isFixedGasLimit": false
    },
    {
      "hash": "0x3ce76ab98c2804c8d3be0d0e81337ab15a54ff3b2f5b0de66fca36cefdab5d06",
      "transactionType": "CALL",
      "contractName": "ZuzCoin",
      "contractAddress": "0x0902d7d6ccf82b4900161c046ea0f059806e05f1",
      "function": "approve(address,uint256)",
      "arguments": [
        "0xE26a2b8614CfaB4d4e5ed3F2f8CA56c1D896a3fD",
        "115792089237316195423570985008687907853269984665640564039457584007913129639935"
      ],
      "transaction": {
        "from": "0xe4c1f059ca50a7e28aa2f418972932ecc1aea700",
        "to": "0x0902d7d6ccf82b4900161c046ea0f059806e05f1",
        "gas": "0xfbfa",
        "value": "0x0",
        "input": "0x095ea7b3000000000000000000000000e26a2b8614cfab4d4e5ed3f2f8ca56c1d896a3fdffffffffffffffffffffffffffffffffffffffffffffffffffffffffffffffff",
        "nonce": "0x15",
        "chainId": "0x279f"
      },
      "additionalContracts": [],
      "isFixedGasLimit": false
    },
    {
      "hash": "0xb7fa3c94ca81714117c49fd8f1c0eaa7fb13503d02261ea4592f669e706a6e22",
      "transactionType": "CALL",
      "contractName": "MockUSDC",
      "contractAddress": "0x4c23adba6db5d67fece4b70c043fda0f07187f59",
      "function": "approve(address,uint256)",
      "arguments": [
        "0xE26a2b8614CfaB4d4e5ed3F2f8CA56c1D896a3fD",
        "115792089237316195423570985008687907853269984665640564039457584007913129639935"
      ],
      "transaction": {
        "from": "0xe4c1f059ca50a7e28aa2f418972932ecc1aea700",
        "to": "0x4c23adba6db5d67fece4b70c043fda0f07187f59",
        "gas": "0xfbfa",
        "value": "0x0",
        "input": "0x095ea7b3000000000000000000000000e26a2b8614cfab4d4e5ed3f2f8ca56c1d896a3fdffffffffffffffffffffffffffffffffffffffffffffffffffffffffffffffff",
        "nonce": "0x16",
        "chainId": "0x279f"
      },
      "additionalContracts": [],
      "isFixedGasLimit": false
    },
    {
      "hash": "0x40be5f369d5a433e319f92605a6a2872c7062c38ce22272140f62b62235a9016",
      "transactionType": "CALL",
      "contractName": "SimpleDEX",
      "contractAddress": "0xe26a2b8614cfab4d4e5ed3f2f8ca56c1d896a3fd",
      "function": "addLiquidity(uint256,uint256)",
      "arguments": [
        "1000000000000000000000",
        "2000000000"
      ],
      "transaction": {
        "from": "0xe4c1f059ca50a7e28aa2f418972932ecc1aea700",
        "to": "0xe26a2b8614cfab4d4e5ed3f2f8ca56c1d896a3fd",
        "gas": "0x50eba",
        "value": "0x0",
        "input": "0x9cd441da00000000000000000000000000000000000000000000003635c9adc5dea000000000000000000000000000000000000000000000000000000000000077359400",
        "nonce": "0x17",
        "chainId": "0x279f"
      },
      "additionalContracts": [],
      "isFixedGasLimit": false
    }
  ],
  "receipts": [
    {
      "status": "0x1",
      "cumulativeGasUsed": "0x6924b0",
      "logs": [
        {
          "address": "0x0902d7d6ccf82b4900161c046ea0f059806e05f1",
          "topics": [
            "0x8be0079c531659141344cd1fd0a4f28419497f9722a3daafe3b4186f6b6457e0",
            "0x0000000000000000000000000000000000000000000000000000000000000000",
            "0x000000000000000000000000e4c1f059ca50a7e28aa2f418972932ecc1aea700"
          ],
          "data": "0x",
          "blockHash": "0x24895f216ab543ad9f4715843f6efad24e7718e8265e1023bef0cab026f91ad7",
          "blockNumber": "0x15ad2e5",
          "blockTimestamp": "0x68577bee",
          "transactionHash": "0x3ae0d80e534f1759d9205bd505c7fec001fe25cc5eaf476f1af4e95016453067",
          "transactionIndex": "0x1c",
          "logIndex": "0x48",
          "removed": false
        },
        {
          "address": "0x0902d7d6ccf82b4900161c046ea0f059806e05f1",
          "topics": [
            "0xddf252ad1be2c89b69c2b068fc378daa952ba7f163c4a11628f55a4df523b3ef",
            "0x0000000000000000000000000000000000000000000000000000000000000000",
            "0x000000000000000000000000e4c1f059ca50a7e28aa2f418972932ecc1aea700"
          ],
          "data": "0x00000000000000000000000000000000000000000000152d02c7e14af6800000",
          "blockHash": "0x24895f216ab543ad9f4715843f6efad24e7718e8265e1023bef0cab026f91ad7",
          "blockNumber": "0x15ad2e5",
          "blockTimestamp": "0x68577bee",
          "transactionHash": "0x3ae0d80e534f1759d9205bd505c7fec001fe25cc5eaf476f1af4e95016453067",
          "transactionIndex": "0x1c",
          "logIndex": "0x49",
          "removed": false
        },
        {
          "address": "0x0902d7d6ccf82b4900161c046ea0f059806e05f1",
          "topics": [
            "0x3f2c9d57c068687834f0de942a9babb9e5acab57d516d3480a3c16ee165a4273",
            "0x000000000000000000000000e4c1f059ca50a7e28aa2f418972932ecc1aea700"
          ],
          "data": "0x00000000000000000000000000000000000000000000152d02c7e14af6800000",
          "blockHash": "0x24895f216ab543ad9f4715843f6efad24e7718e8265e1023bef0cab026f91ad7",
          "blockNumber": "0x15ad2e5",
          "blockTimestamp": "0x68577bee",
          "transactionHash": "0x3ae0d80e534f1759d9205bd505c7fec001fe25cc5eaf476f1af4e95016453067",
          "transactionIndex": "0x1c",
          "logIndex": "0x4a",
          "removed": false
        }
      ],
      "logsBloom": "0x00000000000000000000000000000000000000000000000000800000000000000000000000000000000000000000000000c00000000000000000000000000000000000000000000000000008000000020001000000000000000000000000000000000000020000000000000000200800000000000000000000000010000000400000000000000000000000000000000100000000000000000000000000000004000000000000000000000000000000100001000000000000000000000000000000000002000000000000000000000000000000000000000000000800000020000000000000000000000000000000000000000000000000000000000000000000",
      "type": "0x2",
      "transactionHash": "0x3ae0d80e534f1759d9205bd505c7fec001fe25cc5eaf476f1af4e95016453067",
      "transactionIndex": "0x1c",
      "blockHash": "0x24895f216ab543ad9f4715843f6efad24e7718e8265e1023bef0cab026f91ad7",
      "blockNumber": "0x15ad2e5",
      "gasUsed": "0xf2940",
      "effectiveGasPrice": "0xba43b7401",
      "from": "0xe4c1f059ca50a7e28aa2f418972932ecc1aea700",
      "to": null,
      "contractAddress": "0x0902d7d6ccf82b4900161c046ea0f059806e05f1"
    },
    {
      "status": "0x1",
      "cumulativeGasUsed": "0x76b2dc",
      "logs": [
        {
          "address": "0x4c23adba6db5d67fece4b70c043fda0f07187f59",
          "topics": [
            "0x8be0079c531659141344cd1fd0a4f28419497f9722a3daafe3b4186f6b6457e0",
            "0x0000000000000000000000000000000000000000000000000000000000000000",
            "0x000000000000000000000000e4c1f059ca50a7e28aa2f418972932ecc1aea700"
          ],
          "data": "0x",
          "blockHash": "0x24895f216ab543ad9f4715843f6efad24e7718e8265e1023bef0cab026f91ad7",
          "blockNumber": "0x15ad2e5",
          "blockTimestamp": "0x68577bee",
          "transactionHash": "0x962d483dd3905a38666ab5802aba6def5a1884c51ae11b7439cd07fcb9d8094b",
          "transactionIndex": "0x1d",
          "logIndex": "0x4b",
          "removed": false
        },
        {
          "address": "0x4c23adba6db5d67fece4b70c043fda0f07187f59",
          "topics": [
            "0xddf252ad1be2c89b69c2b068fc378daa952ba7f163c4a11628f55a4df523b3ef",
            "0x0000000000000000000000000000000000000000000000000000000000000000",
            "0x000000000000000000000000e4c1f059ca50a7e28aa2f418972932ecc1aea700"
          ],
          "data": "0x000000000000000000000000000000000000000000000000000000e8d4a51000",
          "blockHash": "0x24895f216ab543ad9f4715843f6efad24e7718e8265e1023bef0cab026f91ad7",
          "blockNumber": "0x15ad2e5",
          "blockTimestamp": "0x68577bee",
          "transactionHash": "0x962d483dd3905a38666ab5802aba6def5a1884c51ae11b7439cd07fcb9d8094b",
          "transactionIndex": "0x1d",
          "logIndex": "0x4c",
          "removed": false
        }
      ],
      "logsBloom": "0x00000000000000000000000000000002000000000000000000800000000000000000000000000000000000000000000000000000000000000000000000000000000000100000000000000008000000000001000000000000000000000000000000000000020000000000000000200800000000000000000000000010000000400000000000000000000000000000000000000000000000000000000000000000000000000000000000000000000000100001000000000000000000000000000000000002000000000000000000000200000000000000000000000000000020000000000000000000000000000000000000000000000000000000000000000000",
      "type": "0x2",
      "transactionHash": "0x962d483dd3905a38666ab5802aba6def5a1884c51ae11b7439cd07fcb9d8094b",
      "transactionIndex": "0x1d",
      "blockHash": "0x24895f216ab543ad9f4715843f6efad24e7718e8265e1023bef0cab026f91ad7",
      "blockNumber": "0x15ad2e5",
      "gasUsed": "0xd8e2c",
      "effectiveGasPrice": "0xba43b7401",
      "from": "0xe4c1f059ca50a7e28aa2f418972932ecc1aea700",
      "to": null,
      "contractAddress": "0x4c23adba6db5d67fece4b70c043fda0f07187f59"
    },
    {
      "status": "0x1",
      "cumulativeGasUsed": "0x94513c",
      "logs": [
        {
          "address": "0xe26a2b8614cfab4d4e5ed3f2f8ca56c1d896a3fd",
          "topics": [
            "0x8be0079c531659141344cd1fd0a4f28419497f9722a3daafe3b4186f6b6457e0",
            "0x0000000000000000000000000000000000000000000000000000000000000000",
            "0x000000000000000000000000e4c1f059ca50a7e28aa2f418972932ecc1aea700"
          ],
          "data": "0x",
          "blockHash": "0x24895f216ab543ad9f4715843f6efad24e7718e8265e1023bef0cab026f91ad7",
          "blockNumber": "0x15ad2e5",
          "blockTimestamp": "0x68577bee",
          "transactionHash": "0x0dda6e960517b1120076355b3c193b1e48674141cdefc4a6c6b6bc008234afd2",
          "transactionIndex": "0x1e",
          "logIndex": "0x4d",
          "removed": false
        }
      ],
      "logsBloom": "0x00000000000000000000000000000000000000000000000000800000000000000000000000000000000000000000000000000000000000000000000000000000000000000000000000000000000000000001000000000000000000000000000000000000020000000000000000200800000020000000000000000000000000400000000000000000000000000000000000000000000000000000000000000000000000000000000000000000000000100001000000000000000000000000000000000000000000000000000000000000000000000000000000000000000020000000000000000000000000010000000000000000080000000000000000000000",
      "type": "0x2",
      "transactionHash": "0x0dda6e960517b1120076355b3c193b1e48674141cdefc4a6c6b6bc008234afd2",
      "transactionIndex": "0x1e",
      "blockHash": "0x24895f216ab543ad9f4715843f6efad24e7718e8265e1023bef0cab026f91ad7",
      "blockNumber": "0x15ad2e5",
      "gasUsed": "0x1d9e60",
      "effectiveGasPrice": "0xba43b7401",
      "from": "0xe4c1f059ca50a7e28aa2f418972932ecc1aea700",
      "to": null,
      "contractAddress": "0xe26a2b8614cfab4d4e5ed3f2f8ca56c1d896a3fd"
    },
    {
      "status": "0x1",
      "cumulativeGasUsed": "0xb38592",
      "logs": [
        {
          "address": "0x0902d7d6ccf82b4900161c046ea0f059806e05f1",
          "topics": [
            "0xddf252ad1be2c89b69c2b068fc378daa952ba7f163c4a11628f55a4df523b3ef",
            "0x0000000000000000000000000000000000000000000000000000000000000000",
            "0x000000000000000000000000e4c1f059ca50a7e28aa2f418972932ecc1aea700"
          ],
          "data": "0x00000000000000000000000000000000000000000000014542ba12a337c00000",
          "blockHash": "0x24895f216ab543ad9f4715843f6efad24e7718e8265e1023bef0cab026f91ad7",
          "blockNumber": "0x15ad2e5",
          "blockTimestamp": "0x68577bee",
          "transactionHash": "0xd9b481526da5e6b9fd54d60cccc2bdb896ef40a70a59d5a089432920ef8ded9a",
          "transactionIndex": "0x2a",
          "logIndex": "0x7e",
          "removed": false
        },
        {
          "address": "0x0902d7d6ccf82b4900161c046ea0f059806e05f1",
          "topics": [
            "0x3f2c9d57c068687834f0de942a9babb9e5acab57d516d3480a3c16ee165a4273",
            "0x000000000000000000000000e4c1f059ca50a7e28aa2f418972932ecc1aea700"
          ],
          "data": "0x00000000000000000000000000000000000000000000014542ba12a337c00000",
          "blockHash": "0x24895f216ab543ad9f4715843f6efad24e7718e8265e1023bef0cab026f91ad7",
          "blockNumber": "0x15ad2e5",
          "blockTimestamp": "0x68577bee",
          "transactionHash": "0xd9b481526da5e6b9fd54d60cccc2bdb896ef40a70a59d5a089432920ef8ded9a",
          "transactionIndex": "0x2a",
          "logIndex": "0x7f",
          "removed": false
        }
      ],
      "logsBloom": "0x00000000000000000000000000000000000000000000000000000000000000000000000000000000000000000000000000c00000000000000000000000000000000000000000000000000008000000020000000000000000000000000000000000000000020000000000000000200800000000000000000000000010000000000000000000000000000000000000000100000000000000000000000000000004000000000000000000000000000000100001000000000000000000000000000000000002000000000000000000000000000000000000000000000800000020000000000000000000000000000000000000000000000000000000000000000000",
      "type": "0x2",
      "transactionHash": "0xd9b481526da5e6b9fd54d60cccc2bdb896ef40a70a59d5a089432920ef8ded9a",
      "transactionIndex": "0x2a",
      "blockHash": "0x24895f216ab543ad9f4715843f6efad24e7718e8265e1023bef0cab026f91ad7",
      "blockNumber": "0x15ad2e5",
      "gasUsed": "0xcdf8",
      "effectiveGasPrice": "0xba43b7401",
      "from": "0xe4c1f059ca50a7e28aa2f418972932ecc1aea700",
      "to": "0x0902d7d6ccf82b4900161c046ea0f059806e05f1",
      "contractAddress": null
    },
    {
      "status": "0x1",
      "cumulativeGasUsed": "0xb45594",
      "logs": [
        {
          "address": "0x4c23adba6db5d67fece4b70c043fda0f07187f59",
          "topics": [
            "0xddf252ad1be2c89b69c2b068fc378daa952ba7f163c4a11628f55a4df523b3ef",
            "0x0000000000000000000000000000000000000000000000000000000000000000",
            "0x000000000000000000000000e4c1f059ca50a7e28aa2f418972932ecc1aea700"
          ],
          "data": "0x00000000000000000000000000000000000000000000000000000002cb417800",
          "blockHash": "0x24895f216ab543ad9f4715843f6efad24e7718e8265e1023bef0cab026f91ad7",
          "blockNumber": "0x15ad2e5",
          "blockTimestamp": "0x68577bee",
          "transactionHash": "0x938d30c464bfddc75936a9b121247f5edfb4db30d05c1b534ecbbf4f924b37dd",
          "transactionIndex": "0x2b",
          "logIndex": "0x80",
          "removed": false
        }
      ],
      "logsBloom": "0x00000000000000000000000000000002000000000000000000000000000000000000000000000000000000000000000000000000000000000000000000000000000000100000000000000008000000000000000000000000000000000000000000000000020000000000000000200800000000000000000000000010000000000000000000000000000000000000000000000000000000000000000000000000000000000000000000000000000000100001000000000000000000000000000000000002000000000000000000000200000000000000000000000000000020000000000000000000000000000000000000000000000000000000000000000000",
      "type": "0x2",
      "transactionHash": "0x938d30c464bfddc75936a9b121247f5edfb4db30d05c1b534ecbbf4f924b37dd",
      "transactionIndex": "0x2b",
      "blockHash": "0x24895f216ab543ad9f4715843f6efad24e7718e8265e1023bef0cab026f91ad7",
      "blockNumber": "0x15ad2e5",
      "gasUsed": "0xd002",
      "effectiveGasPrice": "0xba43b7401",
      "from": "0xe4c1f059ca50a7e28aa2f418972932ecc1aea700",
      "to": "0x4c23adba6db5d67fece4b70c043fda0f07187f59",
      "contractAddress": null
    },
    {
      "status": "0x1",
      "cumulativeGasUsed": "0xb5518e",
      "logs": [
        {
          "address": "0x0902d7d6ccf82b4900161c046ea0f059806e05f1",
          "topics": [
            "0x8c5be1e5ebec7d5bd14f71427d1e84f3dd0314c0f7b2291e5b200ac8c7c3b925",
            "0x000000000000000000000000e4c1f059ca50a7e28aa2f418972932ecc1aea700",
            "0x000000000000000000000000e26a2b8614cfab4d4e5ed3f2f8ca56c1d896a3fd"
          ],
          "data": "0xffffffffffffffffffffffffffffffffffffffffffffffffffffffffffffffff",
          "blockHash": "0x24895f216ab543ad9f4715843f6efad24e7718e8265e1023bef0cab026f91ad7",
          "blockNumber": "0x15ad2e5",
          "blockTimestamp": "0x68577bee",
          "transactionHash": "0x3ce76ab98c2804c8d3be0d0e81337ab15a54ff3b2f5b0de66fca36cefdab5d06",
          "transactionIndex": "0x2c",
          "logIndex": "0x81",
          "removed": false
        }
      ],
      "logsBloom": "0x00000000000000000000000000000000000000000000000000000000040000000000000000000000000000000000000000800000000000000000000000200000000000000000000000000000000000020000000000000000000000000000000000000000000000000000000000200000000000000000000000040000000000000000000000000000000000000000000000000000000000000000000000000004020000000000000000000000000000100001000000000000000008000000000000000000000000000000000000000000000000000000000000000000000000000010000000000000000000000000000000000000000000000000000000000000",
      "type": "0x2",
      "transactionHash": "0x3ce76ab98c2804c8d3be0d0e81337ab15a54ff3b2f5b0de66fca36cefdab5d06",
      "transactionIndex": "0x2c",
      "blockHash": "0x24895f216ab543ad9f4715843f6efad24e7718e8265e1023bef0cab026f91ad7",
      "blockNumber": "0x15ad2e5",
      "gasUsed": "0xfbfa",
      "effectiveGasPrice": "0xba43b7401",
      "from": "0xe4c1f059ca50a7e28aa2f418972932ecc1aea700",
      "to": "0x0902d7d6ccf82b4900161c046ea0f059806e05f1",
      "contractAddress": null
    },
    {
      "status": "0x1",
      "cumulativeGasUsed": "0xb64d88",
      "logs": [
        {
          "address": "0x4c23adba6db5d67fece4b70c043fda0f07187f59",
          "topics": [
            "0x8c5be1e5ebec7d5bd14f71427d1e84f3dd0314c0f7b2291e5b200ac8c7c3b925",
            "0x000000000000000000000000e4c1f059ca50a7e28aa2f418972932ecc1aea700",
            "0x000000000000000000000000e26a2b8614cfab4d4e5ed3f2f8ca56c1d896a3fd"
          ],
          "data": "0xffffffffffffffffffffffffffffffffffffffffffffffffffffffffffffffff",
          "blockHash": "0x24895f216ab543ad9f4715843f6efad24e7718e8265e1023bef0cab026f91ad7",
          "blockNumber": "0x15ad2e5",
          "blockTimestamp": "0x68577bee",
          "transactionHash": "0xb7fa3c94ca81714117c49fd8f1c0eaa7fb13503d02261ea4592f669e706a6e22",
          "transactionIndex": "0x2d",
          "logIndex": "0x82",
          "removed": false
        }
      ],
      "logsBloom": "0x00000000000000000000000000000002000000000000000000000000040000000000000000000000000000000000000000000000000000000000000000200000000000100000000000000000000000000000000000000000000000000000000000000000000000000000000000200000000000000000000000040000000000000000000000000000000000000000000000000000000000000000000000000000020000000000000000000000000000100001000000000000000008000000000000000000000000000000000000000200000000000000000000000000000000000010000000000000000000000000000000000000000000000000000000000000",
      "type": "0x2",
      "transactionHash": "0xb7fa3c94ca81714117c49fd8f1c0eaa7fb13503d02261ea4592f669e706a6e22",
      "transactionIndex": "0x2d",
      "blockHash": "0x24895f216ab543ad9f4715843f6efad24e7718e8265e1023bef0cab026f91ad7",
      "blockNumber": "0x15ad2e5",
      "gasUsed": "0xfbfa",
      "effectiveGasPrice": "0xba43b7401",
      "from": "0xe4c1f059ca50a7e28aa2f418972932ecc1aea700",
      "to": "0x4c23adba6db5d67fece4b70c043fda0f07187f59",
      "contractAddress": null
    },
    {
      "status": "0x1",
      "cumulativeGasUsed": "0xbb5c42",
      "logs": [
        {
          "address": "0x0902d7d6ccf82b4900161c046ea0f059806e05f1",
          "topics": [
            "0xddf252ad1be2c89b69c2b068fc378daa952ba7f163c4a11628f55a4df523b3ef",
            "0x000000000000000000000000e4c1f059ca50a7e28aa2f418972932ecc1aea700",
            "0x000000000000000000000000e26a2b8614cfab4d4e5ed3f2f8ca56c1d896a3fd"
          ],
          "data": "0x00000000000000000000000000000000000000000000003635c9adc5dea00000",
          "blockHash": "0x24895f216ab543ad9f4715843f6efad24e7718e8265e1023bef0cab026f91ad7",
          "blockNumber": "0x15ad2e5",
          "blockTimestamp": "0x68577bee",
          "transactionHash": "0x40be5f369d5a433e319f92605a6a2872c7062c38ce22272140f62b62235a9016",
          "transactionIndex": "0x2e",
          "logIndex": "0x83",
          "removed": false
        },
        {
          "address": "0x4c23adba6db5d67fece4b70c043fda0f07187f59",
          "topics": [
            "0xddf252ad1be2c89b69c2b068fc378daa952ba7f163c4a11628f55a4df523b3ef",
            "0x000000000000000000000000e4c1f059ca50a7e28aa2f418972932ecc1aea700",
            "0x000000000000000000000000e26a2b8614cfab4d4e5ed3f2f8ca56c1d896a3fd"
          ],
          "data": "0x0000000000000000000000000000000000000000000000000000000077359400",
          "blockHash": "0x24895f216ab543ad9f4715843f6efad24e7718e8265e1023bef0cab026f91ad7",
          "blockNumber": "0x15ad2e5",
          "blockTimestamp": "0x68577bee",
          "transactionHash": "0x40be5f369d5a433e319f92605a6a2872c7062c38ce22272140f62b62235a9016",
          "transactionIndex": "0x2e",
          "logIndex": "0x84",
          "removed": false
        },
        {
          "address": "0xe26a2b8614cfab4d4e5ed3f2f8ca56c1d896a3fd",
          "topics": [
            "0xddf252ad1be2c89b69c2b068fc378daa952ba7f163c4a11628f55a4df523b3ef",
            "0x0000000000000000000000000000000000000000000000000000000000000000",
            "0x000000000000000000000000000000000000000000000000000000000000dead"
          ],
          "data": "0x00000000000000000000000000000000000000000000000000000000000003e8",
          "blockHash": "0x24895f216ab543ad9f4715843f6efad24e7718e8265e1023bef0cab026f91ad7",
          "blockNumber": "0x15ad2e5",
          "blockTimestamp": "0x68577bee",
          "transactionHash": "0x40be5f369d5a433e319f92605a6a2872c7062c38ce22272140f62b62235a9016",
          "transactionIndex": "0x2e",
          "logIndex": "0x85",
          "removed": false
        },
        {
          "address": "0xe26a2b8614cfab4d4e5ed3f2f8ca56c1d896a3fd",
          "topics": [
            "0xddf252ad1be2c89b69c2b068fc378daa952ba7f163c4a11628f55a4df523b3ef",
            "0x0000000000000000000000000000000000000000000000000000000000000000",
            "0x000000000000000000000000e4c1f059ca50a7e28aa2f418972932ecc1aea700"
          ],
          "data": "0x0000000000000000000000000000000000000000000000000005063841058fff",
          "blockHash": "0x24895f216ab543ad9f4715843f6efad24e7718e8265e1023bef0cab026f91ad7",
          "blockNumber": "0x15ad2e5",
          "blockTimestamp": "0x68577bee",
          "transactionHash": "0x40be5f369d5a433e319f92605a6a2872c7062c38ce22272140f62b62235a9016",
          "transactionIndex": "0x2e",
          "logIndex": "0x86",
          "removed": false
        },
        {
          "address": "0xe26a2b8614cfab4d4e5ed3f2f8ca56c1d896a3fd",
          "topics": [
            "0x64b83944e79c3ce8d4c297411de637c3e102d064677aac0c163976ebdcd6f50e",
            "0x000000000000000000000000e4c1f059ca50a7e28aa2f418972932ecc1aea700"
          ],
          "data": "0x00000000000000000000000000000000000000000000003635c9adc5dea0000000000000000000000000000000000000000000000000000000000000773594000000000000000000000000000000000000000000000000000005063841058fff",
          "blockHash": "0x24895f216ab543ad9f4715843f6efad24e7718e8265e1023bef0cab026f91ad7",
          "blockNumber": "0x15ad2e5",
          "blockTimestamp": "0x68577bee",
          "transactionHash": "0x40be5f369d5a433e319f92605a6a2872c7062c38ce22272140f62b62235a9016",
          "transactionIndex": "0x2e",
          "logIndex": "0x87",
          "removed": false
        }
      ],
      "logsBloom": "0x00000000000010000000000000000002000000000000000000000000040000000000000000000000000000000000000000800000000000000000000000000000000001100000000000000008800000020000000000000000000000000000000000000000020000000000000000200800000020000000000000040010000000000000000000000000000004000000000000000000000000000000000000000004000000000000000000000000000000100001000000000000000008000000000000000402000000000000000000000200000000000000000000000000020020000000000000000000000000010000000000000000080000000000000000000000",
      "type": "0x2",
      "transactionHash": "0x40be5f369d5a433e319f92605a6a2872c7062c38ce22272140f62b62235a9016",
      "transactionIndex": "0x2e",
      "blockHash": "0x24895f216ab543ad9f4715843f6efad24e7718e8265e1023bef0cab026f91ad7",
      "blockNumber": "0x15ad2e5",
      "gasUsed": "0x50eba",
      "effectiveGasPrice": "0xba43b7401",
      "from": "0xe4c1f059ca50a7e28aa2f418972932ecc1aea700",
      "to": "0xe26a2b8614cfab4d4e5ed3f2f8ca56c1d896a3fd",
      "contractAddress": null
    }
  ],
  "libraries": [],
  "pending": [],
  "returns": {
    "2": {
      "internal_type": "address",
      "value": "0xE26a2b8614CfaB4d4e5ed3F2f8CA56c1D896a3fD"
    },
    "1": {
      "internal_type": "address",
      "value": "0x4c23aDbA6Db5d67FECe4B70C043FDA0f07187F59"
    },
    "0": {
      "internal_type": "address",
      "value": "0x0902d7D6CcF82b4900161C046Ea0f059806E05F1"
    }
  },
  "timestamp": 1750564068,
  "chain": 10143,
  "commit": "8f6b523"
}